{
  "contractName": "ERC20Bank",
  "abi": [
    {
      "inputs": [
        {
          "internalType": "address",
          "name": "depositTokenContract",
          "type": "address"
        },
        {
          "internalType": "uint256",
          "name": "rewardPoolSize",
          "type": "uint256"
        }
      ],
      "stateMutability": "nonpayable",
      "type": "constructor"
    },
    {
      "inputs": [],
      "name": "bankOwner",
      "outputs": [
        {
          "internalType": "address",
          "name": "",
          "type": "address"
        }
      ],
      "stateMutability": "view",
      "type": "function",
      "constant": true
    },
    {
      "inputs": [],
      "name": "tokenContract",
      "outputs": [
        {
          "internalType": "contract IERC20",
          "name": "",
          "type": "address"
        }
      ],
      "stateMutability": "view",
      "type": "function",
      "constant": true
    }
  ],
  "bytecode": "0x608060405234801561001057600080fd5b506040516102ee3803806102ee833981810160405281019061003291906100d2565b5050610112565b600080fd5b600073ffffffffffffffffffffffffffffffffffffffff82169050919050565b60006100698261003e565b9050919050565b6100798161005e565b811461008457600080fd5b50565b60008151905061009681610070565b92915050565b6000819050919050565b6100af8161009c565b81146100ba57600080fd5b50565b6000815190506100cc816100a6565b92915050565b600080604083850312156100e9576100e8610039565b5b60006100f785828601610087565b9250506020610108858286016100bd565b9150509250929050565b6101cd806101216000396000f3fe608060405234801561001057600080fd5b50600436106100365760003560e01c806355a373d61461003b578063e147aaa714610059575b600080fd5b610043610077565b6040516100509190610140565b60405180910390f35b61006161009b565b60405161006e919061017c565b60405180910390f35b60008054906101000a900473ffffffffffffffffffffffffffffffffffffffff1681565b600160009054906101000a900473ffffffffffffffffffffffffffffffffffffffff1681565b600073ffffffffffffffffffffffffffffffffffffffff82169050919050565b6000819050919050565b60006101066101016100fc846100c1565b6100e1565b6100c1565b9050919050565b6000610118826100eb565b9050919050565b600061012a8261010d565b9050919050565b61013a8161011f565b82525050565b60006020820190506101556000830184610131565b92915050565b6000610166826100c1565b9050919050565b6101768161015b565b82525050565b6000602082019050610191600083018461016d565b9291505056fea2646970667358221220cd337f40fc05b09eef10fd8883730c7f9722bdf196b783df88c2b9d3b035ff7d64736f6c634300080a0033",
  "immutableReferences": {},
  "source": "// SPDX-License-Identifier: MIT\n\npragma solidity 0.8.10;\n\nimport \"@openzeppelin/contracts/token/ERC20/IERC20.sol\";\n\ncontract ERC20Bank {\n    IERC20 public tokenContract;\n    address public bankOwner;\n\n    constructor(address depositTokenContract, uint256 rewardPoolSize) {}\n}\n",
  "sourcePath": "/Users/rostykstakhiv/Blockchain/ETH/tracelabs_task/contracts/ERC20Bank.sol",
  "compiler": {
    "name": "solc",
    "version": "0.8.10+commit.fc410830.Emscripten.clang"
  },
  "schemaVersion": "3.4.2",
  "updatedAt": "2021-11-14T17:06:55.102Z",
  "networkType": "ethereum",
  "devdoc": {
    "kind": "dev",
    "methods": {},
    "version": 1
  },
  "userdoc": {
    "kind": "user",
    "methods": {},
    "version": 1
  }
}