{
  "contractName": "ERC20Bank",
  "abi": [
    {
      "inputs": [
        {
          "internalType": "address",
          "name": "depositTokenContract",
          "type": "address"
        },
        {
          "internalType": "uint256",
          "name": "rewardPoolSize",
          "type": "uint256"
        },
        {
          "internalType": "uint128",
          "name": "t",
          "type": "uint128"
        }
      ],
      "stateMutability": "nonpayable",
      "type": "constructor"
    },
    {
      "anonymous": false,
      "inputs": [
        {
          "indexed": true,
          "internalType": "address",
          "name": "previousOwner",
          "type": "address"
        },
        {
          "indexed": true,
          "internalType": "address",
          "name": "newOwner",
          "type": "address"
        }
      ],
      "name": "OwnershipTransferred",
      "type": "event"
    },
    {
      "inputs": [],
      "name": "T",
      "outputs": [
        {
          "internalType": "uint128",
          "name": "",
          "type": "uint128"
        }
      ],
      "stateMutability": "view",
      "type": "function",
      "constant": true
    },
    {
      "inputs": [],
      "name": "T0",
      "outputs": [
        {
          "internalType": "uint128",
          "name": "",
          "type": "uint128"
        }
      ],
      "stateMutability": "view",
      "type": "function",
      "constant": true
    },
    {
      "inputs": [],
      "name": "owner",
      "outputs": [
        {
          "internalType": "address",
          "name": "",
          "type": "address"
        }
      ],
      "stateMutability": "view",
      "type": "function",
      "constant": true
    },
    {
      "inputs": [],
      "name": "renounceOwnership",
      "outputs": [],
      "stateMutability": "nonpayable",
      "type": "function"
    },
    {
      "inputs": [],
      "name": "stakePoolSize",
      "outputs": [
        {
          "internalType": "uint256",
          "name": "",
          "type": "uint256"
        }
      ],
      "stateMutability": "view",
      "type": "function",
      "constant": true
    },
    {
      "inputs": [],
      "name": "tokenContract",
      "outputs": [
        {
          "internalType": "contract ERC20",
          "name": "",
          "type": "address"
        }
      ],
      "stateMutability": "view",
      "type": "function",
      "constant": true
    },
    {
      "inputs": [
        {
          "internalType": "address",
          "name": "newOwner",
          "type": "address"
        }
      ],
      "name": "transferOwnership",
      "outputs": [],
      "stateMutability": "nonpayable",
      "type": "function"
    },
    {
      "inputs": [],
      "name": "withdrawRemainingRewardPool",
      "outputs": [],
      "stateMutability": "nonpayable",
      "type": "function"
    },
    {
      "inputs": [
        {
          "internalType": "uint256",
          "name": "amount",
          "type": "uint256"
        }
      ],
      "name": "deposit",
      "outputs": [],
      "stateMutability": "nonpayable",
      "type": "function"
    },
    {
      "inputs": [],
      "name": "withdraw",
      "outputs": [],
      "stateMutability": "nonpayable",
      "type": "function"
    },
    {
      "inputs": [
        {
          "internalType": "address",
          "name": "account",
          "type": "address"
        }
      ],
      "name": "stakeOf",
      "outputs": [
        {
          "internalType": "uint256",
          "name": "",
          "type": "uint256"
        }
      ],
      "stateMutability": "view",
      "type": "function",
      "constant": true
    }
  ],
  "bytecode": "0x60806040523480156200001157600080fd5b5060405162001d6538038062001d658339818101604052810190620000379190620003c8565b620000576200004b6200020a60201b60201c565b6200021260201b60201c565b82600760006101000a81548173ffffffffffffffffffffffffffffffffffffffff021916908373ffffffffffffffffffffffffffffffffffffffff160217905550600760009054906101000a900473ffffffffffffffffffffffffffffffffffffffff1673ffffffffffffffffffffffffffffffffffffffff166323b872dd3330856040518463ffffffff1660e01b8152600401620000f99392919062000446565b6020604051808303816000875af115801562000119573d6000803e3d6000fd5b505050506040513d601f19601f820116820180604052508101906200013f9190620004c0565b5042600160106101000a8154816fffffffffffffffffffffffffffffffff02191690836fffffffffffffffffffffffffffffffff16021790555080600160006101000a8154816fffffffffffffffffffffffffffffffff02191690836fffffffffffffffffffffffffffffffff160217905550600282620001c1919062000550565b600481905550600582620001d6919062000550565b60028190555060045460025483620001ef919062000588565b620001fb919062000588565b600381905550505050620005c3565b600033905090565b60008060009054906101000a900473ffffffffffffffffffffffffffffffffffffffff169050816000806101000a81548173ffffffffffffffffffffffffffffffffffffffff021916908373ffffffffffffffffffffffffffffffffffffffff1602179055508173ffffffffffffffffffffffffffffffffffffffff168173ffffffffffffffffffffffffffffffffffffffff167f8be0079c531659141344cd1fd0a4f28419497f9722a3daafe3b4186f6b6457e060405160405180910390a35050565b600080fd5b600073ffffffffffffffffffffffffffffffffffffffff82169050919050565b60006200030882620002db565b9050919050565b6200031a81620002fb565b81146200032657600080fd5b50565b6000815190506200033a816200030f565b92915050565b6000819050919050565b620003558162000340565b81146200036157600080fd5b50565b60008151905062000375816200034a565b92915050565b60006fffffffffffffffffffffffffffffffff82169050919050565b620003a2816200037b565b8114620003ae57600080fd5b50565b600081519050620003c28162000397565b92915050565b600080600060608486031215620003e457620003e3620002d6565b5b6000620003f48682870162000329565b9350506020620004078682870162000364565b92505060406200041a86828701620003b1565b9150509250925092565b6200042f81620002fb565b82525050565b620004408162000340565b82525050565b60006060820190506200045d600083018662000424565b6200046c602083018562000424565b6200047b604083018462000435565b949350505050565b60008115159050919050565b6200049a8162000483565b8114620004a657600080fd5b50565b600081519050620004ba816200048f565b92915050565b600060208284031215620004d957620004d8620002d6565b5b6000620004e984828501620004a9565b91505092915050565b7f4e487b7100000000000000000000000000000000000000000000000000000000600052601260045260246000fd5b7f4e487b7100000000000000000000000000000000000000000000000000000000600052601160045260246000fd5b60006200055d8262000340565b91506200056a8362000340565b9250826200057d576200057c620004f2565b5b828204905092915050565b6000620005958262000340565b9150620005a28362000340565b925082821015620005b857620005b762000521565b5b828203905092915050565b61179280620005d36000396000f3fe608060405234801561001057600080fd5b50600436106100a95760003560e01c80635c1adf00116100715780635c1adf0014610142578063715018a6146101605780638da5cb5b1461016a578063b6b55f2514610188578063c916384a146101a4578063f2fde38b146101ae576100a9565b80632bc80f3a146100ae5780633ccfd60b146100cc57806342623360146100d657806355a373d614610106578063576bf99a14610124575b600080fd5b6100b66101ca565b6040516100c39190610eff565b60405180910390f35b6100d46101ec565b005b6100f060048036038101906100eb9190610f7d565b610624565b6040516100fd9190610fc3565b60405180910390f35b61010e61066d565b60405161011b919061103d565b60405180910390f35b61012c610693565b6040516101399190610eff565b60405180910390f35b61014a6106b5565b6040516101579190610fc3565b60405180910390f35b6101686106bb565b005b610172610743565b60405161017f9190611067565b60405180910390f35b6101a2600480360381019061019d91906110ae565b61076c565b005b6101ac61099d565b005b6101c860048036038101906101c39190610f7d565b610c36565b005b600160009054906101000a90046fffffffffffffffffffffffffffffffff1681565b6101f4610d2e565b15610234576040517f08c379a000000000000000000000000000000000000000000000000000000000815260040161022b90611138565b60405180910390fd5b6000600660003373ffffffffffffffffffffffffffffffffffffffff1673ffffffffffffffffffffffffffffffffffffffff168152602001908152602001600020549050600081116102bb576040517f08c379a00000000000000000000000000000000000000000000000000000000081526004016102b2906111a4565b60405180910390fd5b6000806000600160009054906101000a90046fffffffffffffffffffffffffffffffff1660046102eb91906111f3565b600160109054906101000a90046fffffffffffffffffffffffffffffffff16610314919061123d565b6fffffffffffffffffffffffffffffffff164211156103a457610338600254610da2565b9250610345600354610da2565b9150610352600454610da2565b905082600260008282546103669190611283565b92505081905550816003600082825461037f9190611283565b9250508190555080600460008282546103989190611283565b925050819055506104f8565b600160009054906101000a90046fffffffffffffffffffffffffffffffff1660036103cf91906111f3565b600160109054906101000a90046fffffffffffffffffffffffffffffffff166103f8919061123d565b6fffffffffffffffffffffffffffffffff164211156104625761041c600254610da2565b9250610429600354610da2565b9150826002600082825461043d9190611283565b9250508190555081600360008282546104569190611283565b925050819055506104f7565b600160009054906101000a90046fffffffffffffffffffffffffffffffff16600261048d91906111f3565b600160109054906101000a90046fffffffffffffffffffffffffffffffff166104b6919061123d565b6fffffffffffffffffffffffffffffffff164211156104f6576104da600254610da2565b925082600260008282546104ee9190611283565b925050819055505b5b5b600081838561050791906112b7565b61051191906112b7565b90506000600660003373ffffffffffffffffffffffffffffffffffffffff1673ffffffffffffffffffffffffffffffffffffffff16815260200190815260200160002081905550846005600082825461056a9190611283565b92505081905550600760009054906101000a900473ffffffffffffffffffffffffffffffffffffffff1673ffffffffffffffffffffffffffffffffffffffff1663a9059cbb3383886105bc91906112b7565b6040518363ffffffff1660e01b81526004016105d992919061130d565b6020604051808303816000875af11580156105f8573d6000803e3d6000fd5b505050506040513d601f19601f8201168201806040525081019061061c919061136e565b505050505050565b6000600660008373ffffffffffffffffffffffffffffffffffffffff1673ffffffffffffffffffffffffffffffffffffffff168152602001908152602001600020549050919050565b600760009054906101000a900473ffffffffffffffffffffffffffffffffffffffff1681565b600160109054906101000a90046fffffffffffffffffffffffffffffffff1681565b60055481565b6106c3610e08565b73ffffffffffffffffffffffffffffffffffffffff166106e1610743565b73ffffffffffffffffffffffffffffffffffffffff1614610737576040517f08c379a000000000000000000000000000000000000000000000000000000000815260040161072e906113e7565b60405180910390fd5b6107416000610e10565b565b60008060009054906101000a900473ffffffffffffffffffffffffffffffffffffffff16905090565b6000600160009054906101000a90046fffffffffffffffffffffffffffffffff16600160109054906101000a90046fffffffffffffffffffffffffffffffff166107b6919061123d565b6fffffffffffffffffffffffffffffffff16905080421061080c576040517f08c379a000000000000000000000000000000000000000000000000000000000815260040161080390611453565b60405180910390fd5b6000821161084f576040517f08c379a0000000000000000000000000000000000000000000000000000000008152600401610846906114bf565b60405180910390fd5b600760009054906101000a900473ffffffffffffffffffffffffffffffffffffffff1673ffffffffffffffffffffffffffffffffffffffff166323b872dd3330856040518463ffffffff1660e01b81526004016108ae939291906114df565b6020604051808303816000875af11580156108cd573d6000803e3d6000fd5b505050506040513d601f19601f820116820180604052508101906108f1919061136e565b5081600660003373ffffffffffffffffffffffffffffffffffffffff1673ffffffffffffffffffffffffffffffffffffffff1681526020019081526020016000205461093d91906112b7565b600660003373ffffffffffffffffffffffffffffffffffffffff1673ffffffffffffffffffffffffffffffffffffffff16815260200190815260200160002081905550816005600082825461099291906112b7565b925050819055505050565b6109a5610e08565b73ffffffffffffffffffffffffffffffffffffffff166109c3610743565b73ffffffffffffffffffffffffffffffffffffffff1614610a19576040517f08c379a0000000000000000000000000000000000000000000000000000000008152600401610a10906113e7565b60405180910390fd5b6000600160009054906101000a90046fffffffffffffffffffffffffffffffff166004610a4691906111f3565b600160109054906101000a90046fffffffffffffffffffffffffffffffff16610a6f919061123d565b6fffffffffffffffffffffffffffffffff164211905060008060055414905060008280610a995750815b905080610adb576040517f08c379a0000000000000000000000000000000000000000000000000000000008152600401610ad2906115ae565b60405180910390fd5b6000600554600760009054906101000a900473ffffffffffffffffffffffffffffffffffffffff1673ffffffffffffffffffffffffffffffffffffffff166370a08231306040518263ffffffff1660e01b8152600401610b3b9190611067565b602060405180830381865afa158015610b58573d6000803e3d6000fd5b505050506040513d601f19601f82011682018060405250810190610b7c91906115e3565b610b869190611283565b9050600760009054906101000a900473ffffffffffffffffffffffffffffffffffffffff1673ffffffffffffffffffffffffffffffffffffffff1663a9059cbb610bce610743565b836040518363ffffffff1660e01b8152600401610bec92919061130d565b6020604051808303816000875af1158015610c0b573d6000803e3d6000fd5b505050506040513d601f19601f82011682018060405250810190610c2f919061136e565b5050505050565b610c3e610e08565b73ffffffffffffffffffffffffffffffffffffffff16610c5c610743565b73ffffffffffffffffffffffffffffffffffffffff1614610cb2576040517f08c379a0000000000000000000000000000000000000000000000000000000008152600401610ca9906113e7565b60405180910390fd5b600073ffffffffffffffffffffffffffffffffffffffff168173ffffffffffffffffffffffffffffffffffffffff161415610d22576040517f08c379a0000000000000000000000000000000000000000000000000000000008152600401610d1990611682565b60405180910390fd5b610d2b81610e10565b50565b600080600160009054906101000a90046fffffffffffffffffffffffffffffffff166002610d5c91906111f3565b600160109054906101000a90046fffffffffffffffffffffffffffffffff16610d85919061123d565b6fffffffffffffffffffffffffffffffff16905080421091505090565b600080600660003373ffffffffffffffffffffffffffffffffffffffff1673ffffffffffffffffffffffffffffffffffffffff1681526020019081526020016000205490506005548382610df691906116a2565b610e00919061172b565b915050919050565b600033905090565b60008060009054906101000a900473ffffffffffffffffffffffffffffffffffffffff169050816000806101000a81548173ffffffffffffffffffffffffffffffffffffffff021916908373ffffffffffffffffffffffffffffffffffffffff1602179055508173ffffffffffffffffffffffffffffffffffffffff168173ffffffffffffffffffffffffffffffffffffffff167f8be0079c531659141344cd1fd0a4f28419497f9722a3daafe3b4186f6b6457e060405160405180910390a35050565b60006fffffffffffffffffffffffffffffffff82169050919050565b610ef981610ed4565b82525050565b6000602082019050610f146000830184610ef0565b92915050565b600080fd5b600073ffffffffffffffffffffffffffffffffffffffff82169050919050565b6000610f4a82610f1f565b9050919050565b610f5a81610f3f565b8114610f6557600080fd5b50565b600081359050610f7781610f51565b92915050565b600060208284031215610f9357610f92610f1a565b5b6000610fa184828501610f68565b91505092915050565b6000819050919050565b610fbd81610faa565b82525050565b6000602082019050610fd86000830184610fb4565b92915050565b6000819050919050565b6000611003610ffe610ff984610f1f565b610fde565b610f1f565b9050919050565b600061101582610fe8565b9050919050565b60006110278261100a565b9050919050565b6110378161101c565b82525050565b6000602082019050611052600083018461102e565b92915050565b61106181610f3f565b82525050565b600060208201905061107c6000830184611058565b92915050565b61108b81610faa565b811461109657600080fd5b50565b6000813590506110a881611082565b92915050565b6000602082840312156110c4576110c3610f1a565b5b60006110d284828501611099565b91505092915050565b600082825260208201905092915050565b7f546f6b656e7320617265206c6f636b6564000000000000000000000000000000600082015250565b60006111226011836110db565b915061112d826110ec565b602082019050919050565b6000602082019050818103600083015261115181611115565b9050919050565b7f596f7572207374616b696e67206163636f756e7420697320656d707479000000600082015250565b600061118e601d836110db565b915061119982611158565b602082019050919050565b600060208201905081810360008301526111bd81611181565b9050919050565b7f4e487b7100000000000000000000000000000000000000000000000000000000600052601160045260246000fd5b60006111fe82610ed4565b915061120983610ed4565b9250816fffffffffffffffffffffffffffffffff0483118215151615611232576112316111c4565b5b828202905092915050565b600061124882610ed4565b915061125383610ed4565b9250826fffffffffffffffffffffffffffffffff03821115611278576112776111c4565b5b828201905092915050565b600061128e82610faa565b915061129983610faa565b9250828210156112ac576112ab6111c4565b5b828203905092915050565b60006112c282610faa565b91506112cd83610faa565b9250827fffffffffffffffffffffffffffffffffffffffffffffffffffffffffffffffff03821115611302576113016111c4565b5b828201905092915050565b60006040820190506113226000830185611058565b61132f6020830184610fb4565b9392505050565b60008115159050919050565b61134b81611336565b811461135657600080fd5b50565b60008151905061136881611342565b92915050565b60006020828403121561138457611383610f1a565b5b600061139284828501611359565b91505092915050565b7f4f776e61626c653a2063616c6c6572206973206e6f7420746865206f776e6572600082015250565b60006113d16020836110db565b91506113dc8261139b565b602082019050919050565b60006020820190508181036000830152611400816113c4565b9050919050565b7f4465706f7369742074696d6520706572696f6420656e64656400000000000000600082015250565b600061143d6019836110db565b915061144882611407565b602082019050919050565b6000602082019050818103600083015261146c81611430565b9050919050565b7f4465706f7369742073686f756c642062652067726561746572207468616e2030600082015250565b60006114a96020836110db565b91506114b482611473565b602082019050919050565b600060208201905081810360008301526114d88161149c565b9050919050565b60006060820190506114f46000830186611058565b6115016020830185611058565b61150e6040830184610fb4565b949350505050565b7f42616e6b206f776e65722063616e6e6f74207769746864726177206265666f7260008201527f652034542068617320706173736564206f72206265666f726520616c6c20757360208201527f65727320686176652077697468647261776e0000000000000000000000000000604082015250565b60006115986052836110db565b91506115a382611516565b606082019050919050565b600060208201905081810360008301526115c78161158b565b9050919050565b6000815190506115dd81611082565b92915050565b6000602082840312156115f9576115f8610f1a565b5b6000611607848285016115ce565b91505092915050565b7f4f776e61626c653a206e6577206f776e657220697320746865207a65726f206160008201527f6464726573730000000000000000000000000000000000000000000000000000602082015250565b600061166c6026836110db565b915061167782611610565b604082019050919050565b6000602082019050818103600083015261169b8161165f565b9050919050565b60006116ad82610faa565b91506116b883610faa565b9250817fffffffffffffffffffffffffffffffffffffffffffffffffffffffffffffffff04831182151516156116f1576116f06111c4565b5b828202905092915050565b7f4e487b7100000000000000000000000000000000000000000000000000000000600052601260045260246000fd5b600061173682610faa565b915061174183610faa565b925082611751576117506116fc565b5b82820490509291505056fea26469706673582212202341337fc2b001cffb5f526551eef70504aac58fe66694589084601f05625f8f64736f6c634300080a0033",
  "immutableReferences": {},
  "source": "// SPDX-License-Identifier: MIT\n\npragma solidity 0.8.10;\n\nimport \"@openzeppelin/contracts/token/ERC20/ERC20.sol\";\nimport \"@openzeppelin/contracts/access/Ownable.sol\";\n\n/**\n * @title ERC20Bank\n * @notice This smart contract enables anyone to deposit an amount X of ERC-20 tokens to their savings (staking) account.\n * The bank smart contract also contains an additional token reward pool of R ERC-20 tokens, deposited to the contract by the contract owner (bank owner)\n * at contract deployment.\n */\ncontract ERC20Bank is Ownable {\n    ///uint128 is a VERY BIG number for the timestamp that should cover our needs for sure, even uint64 would be enough, but if we use\n    ///uint64 then those 2 variables will take only 128 bits of a 256 bit slot and because all other variables are uint256 they will not fit into the half-empty slot anyway\n    uint128 public T;\n    uint128 public T0;\n\n    uint256 private R1;\n    uint256 private R2;\n    uint256 private R3;\n\n    uint256 public stakePoolSize;\n\n    mapping(address => uint256) private stakes;\n\n    ERC20 public tokenContract;\n\n    /**\n     * @param depositTokenContract The addrss of the ERC-20 contract tokens of which users will stake into the bank\n     * @param rewardPoolSize The amount of ERC-20 tokens that the bank owner transfers to the reward pool at bank contract deployment\n     * @param t Time constant which is going to be used for calculations like reward amount, tokens lock period, etc.\n     *\n     * @notice IMPORTANT: The smart contract assumes that creator has called 'approve' method of 'depositTokenContract' ERC-20 contract with amount\n     * greater than or equal to the 'rewardPoolSize' to be able to transfer reward pool to the bank contract.\n     */\n    constructor(\n        address depositTokenContract,\n        uint256 rewardPoolSize,\n        uint128 t\n    ) {\n        tokenContract = ERC20(depositTokenContract);\n        tokenContract.transferFrom(msg.sender, address(this), rewardPoolSize);\n\n        T0 = uint128(block.timestamp);\n        T = t;\n        R3 = rewardPoolSize / 2; //50% of reward pool\n        R1 = rewardPoolSize / 5; //20% of reward pool\n        R2 = rewardPoolSize - R1 - R3; // Reward pool - R1 - R3 equals R2\n    }\n\n    function withdrawRemainingRewardPool() public onlyOwner {\n        /// Overflow here is handled by solidityy as starting from solidity 0.8.0 all operations are checked by default\n        /// We should handle overflow here to avoid the case where contract owner can potentially manipulate the contract in the following way:\n        /// If contract owner passes T big enough that it will overflow when we calculate T0 + 4*T they will be able to withdraw reward pool before 4T has passed or before\n        /// every user has withdrawn their reward\n        bool has4Tpassed = block.timestamp > T0 + 4 * T;\n        bool haveAllUsersWithdrawn = stakePoolSize == 0;\n        bool canOwnerWithdraw = has4Tpassed || haveAllUsersWithdrawn;\n\n        require(\n            canOwnerWithdraw,\n            \"Bank owner cannot withdraw before 4T has passed or before all users have withdrawn\"\n        );\n\n        uint256 remainingRewardPool = tokenContract.balanceOf(address(this)) - stakePoolSize;\n\n        tokenContract.transfer(owner(), remainingRewardPool);\n    }\n\n    function deposit(uint256 amount) public {\n        uint256 depositPeriodClosingTime = T0 + T;\n        require(\n            block.timestamp < depositPeriodClosingTime,\n            \"Deposit time period ended\"\n        );\n        require(amount > 0, \"Deposit should be greater than 0\");\n\n        tokenContract.transferFrom(msg.sender, address(this), amount);\n\n        stakes[msg.sender] = stakes[msg.sender] + amount;\n        stakePoolSize += amount;\n    }\n\n    function withdraw() public {\n        require(!_areTokensLocked(), \"Tokens are locked\");\n\n        uint256 stake = stakes[msg.sender];\n        require(stake > 0, \"Your staking account is empty\");\n\n        uint256 stakingRewardFromR1;\n        uint256 stakingRewardFromR2;\n        uint256 stakingRewardFromR3;\n\n        if (block.timestamp > T0 + 4 * T) {\n            stakingRewardFromR1 = _calculateStakingRewardFromRewardPool(R1);\n            stakingRewardFromR2 = _calculateStakingRewardFromRewardPool(R2);\n            stakingRewardFromR3 = _calculateStakingRewardFromRewardPool(R3);\n\n            R1 -= stakingRewardFromR1;\n            R2 -= stakingRewardFromR2;\n            R3 -= stakingRewardFromR3;\n        } else if (block.timestamp > T0 + 3 * T) {\n            stakingRewardFromR1 = _calculateStakingRewardFromRewardPool(R1);\n            stakingRewardFromR2 = _calculateStakingRewardFromRewardPool(R2);\n\n            R1 -= stakingRewardFromR1;\n            R2 -= stakingRewardFromR2;\n        } else if (block.timestamp > T0 + 2 * T) {\n            stakingRewardFromR1 = _calculateStakingRewardFromRewardPool(R1);\n\n            R1 -= stakingRewardFromR1;\n        }\n\n        uint256 stakingReward = stakingRewardFromR1 +\n            stakingRewardFromR2 +\n            stakingRewardFromR3;\n\n        stakes[msg.sender] = 0;\n        stakePoolSize -= stake;\n        tokenContract.transfer(msg.sender, stake + stakingReward);\n    }\n\n    function stakeOf(address account) public view returns (uint256) {\n        return stakes[account];\n    }\n\n    function _areTokensLocked() private view returns (bool) {\n        ///According to the requirements \"From moment t0+T to t0+2T, users cannot withdraw their tokens\" and \"If the user tries to remove tokens before T time has elapsed\n        ///since they have deposited, the transaction should fail\". That means that user should not be able to\n        ///withdraw their funds up until t0 + 2*T has passed\n        uint256 lockPeriodEndTime = T0 + 2 * T;\n        return block.timestamp < lockPeriodEndTime;\n    }\n\n    function _calculateStakingRewardFromRewardPool(uint256 rewardPool)\n        private\n        view\n        returns (uint256)\n    {\n        uint256 stake = stakes[msg.sender];\n        return (stake * rewardPool) / stakePoolSize;\n    }\n}\n",
  "sourcePath": "/Users/rostykstakhiv/Blockchain/ETH/tracelabs_task/contracts/ERC20Bank.sol",
  "compiler": {
    "name": "solc",
    "version": "0.8.10+commit.fc410830.Emscripten.clang"
  },
  "schemaVersion": "3.4.2",
  "updatedAt": "2021-11-23T22:21:54.467Z",
  "networkType": "ethereum",
  "devdoc": {
    "kind": "dev",
    "methods": {
      "constructor": {
        "params": {
          "depositTokenContract": "The addrss of the ERC-20 contract tokens of which users will stake into the bank",
          "rewardPoolSize": "The amount of ERC-20 tokens that the bank owner transfers to the reward pool at bank contract deployment",
          "t": "Time constant which is going to be used for calculations like reward amount, tokens lock period, etc."
        }
      },
      "owner()": {
        "details": "Returns the address of the current owner."
      },
      "renounceOwnership()": {
        "details": "Leaves the contract without owner. It will not be possible to call `onlyOwner` functions anymore. Can only be called by the current owner. NOTE: Renouncing ownership will leave the contract without an owner, thereby removing any functionality that is only available to the owner."
      },
      "transferOwnership(address)": {
        "details": "Transfers ownership of the contract to a new account (`newOwner`). Can only be called by the current owner."
      }
    },
    "title": "ERC20Bank",
    "version": 1
  },
  "userdoc": {
    "kind": "user",
    "methods": {
      "T()": {
        "notice": "uint128 is a VERY BIG number for the timestamp that should cover our needs for sure, even uint64 would be enough, but if we use uint64 then those 2 variables will take only 128 bits of a 256 bit slot and because all other variables are uint256 they will not fit into the half-empty slot anyway"
      },
      "constructor": {
        "notice": "IMPORTANT: The smart contract assumes that creator has called 'approve' method of 'depositTokenContract' ERC-20 contract with amount greater than or equal to the 'rewardPoolSize' to be able to transfer reward pool to the bank contract."
      }
    },
    "notice": "This smart contract enables anyone to deposit an amount X of ERC-20 tokens to their savings (staking) account. The bank smart contract also contains an additional token reward pool of R ERC-20 tokens, deposited to the contract by the contract owner (bank owner) at contract deployment.",
    "version": 1
  }
}