{
  "contractName": "ERC20Bank",
  "abi": [
    {
      "inputs": [
        {
          "internalType": "address",
          "name": "depositTokenContract",
          "type": "address"
        },
        {
          "internalType": "uint256",
          "name": "rewardPoolSize",
          "type": "uint256"
        },
        {
          "internalType": "uint128",
          "name": "t",
          "type": "uint128"
        }
      ],
      "stateMutability": "nonpayable",
      "type": "constructor"
    },
    {
      "anonymous": false,
      "inputs": [
        {
          "indexed": true,
          "internalType": "address",
          "name": "previousOwner",
          "type": "address"
        },
        {
          "indexed": true,
          "internalType": "address",
          "name": "newOwner",
          "type": "address"
        }
      ],
      "name": "OwnershipTransferred",
      "type": "event"
    },
    {
      "inputs": [],
      "name": "R1",
      "outputs": [
        {
          "internalType": "uint256",
          "name": "",
          "type": "uint256"
        }
      ],
      "stateMutability": "view",
      "type": "function"
    },
    {
      "inputs": [],
      "name": "R2",
      "outputs": [
        {
          "internalType": "uint256",
          "name": "",
          "type": "uint256"
        }
      ],
      "stateMutability": "view",
      "type": "function"
    },
    {
      "inputs": [],
      "name": "R3",
      "outputs": [
        {
          "internalType": "uint256",
          "name": "",
          "type": "uint256"
        }
      ],
      "stateMutability": "view",
      "type": "function"
    },
    {
      "inputs": [],
      "name": "T",
      "outputs": [
        {
          "internalType": "uint128",
          "name": "",
          "type": "uint128"
        }
      ],
      "stateMutability": "view",
      "type": "function"
    },
    {
      "inputs": [],
      "name": "bankAllowance",
      "outputs": [
        {
          "internalType": "uint256",
          "name": "",
          "type": "uint256"
        }
      ],
      "stateMutability": "view",
      "type": "function"
    },
    {
      "inputs": [],
      "name": "owner",
      "outputs": [
        {
          "internalType": "address",
          "name": "",
          "type": "address"
        }
      ],
      "stateMutability": "view",
      "type": "function"
    },
    {
      "inputs": [],
      "name": "renounceOwnership",
      "outputs": [],
      "stateMutability": "nonpayable",
      "type": "function"
    },
    {
      "inputs": [],
      "name": "tAddress",
      "outputs": [
        {
          "internalType": "address",
          "name": "",
          "type": "address"
        }
      ],
      "stateMutability": "view",
      "type": "function"
    },
    {
      "inputs": [],
      "name": "tokenContract",
      "outputs": [
        {
          "internalType": "contract ERC20",
          "name": "",
          "type": "address"
        }
      ],
      "stateMutability": "view",
      "type": "function"
    },
    {
      "inputs": [
        {
          "internalType": "address",
          "name": "newOwner",
          "type": "address"
        }
      ],
      "name": "transferOwnership",
      "outputs": [],
      "stateMutability": "nonpayable",
      "type": "function"
    },
    {
      "inputs": [],
      "name": "withdrawRemainingRewardPool",
      "outputs": [],
      "stateMutability": "nonpayable",
      "type": "function"
    },
    {
      "inputs": [
        {
          "internalType": "uint256",
          "name": "amount",
          "type": "uint256"
        }
      ],
      "name": "deposit",
      "outputs": [],
      "stateMutability": "nonpayable",
      "type": "function"
    },
    {
      "inputs": [],
      "name": "withdraw",
      "outputs": [],
      "stateMutability": "nonpayable",
      "type": "function"
    }
  ],
  "bytecode": "0x60806040523480156200001157600080fd5b5060405162001e1238038062001e12833981810160405281019062000037919062000409565b620000576200004b6200024b60201b60201c565b6200025360201b60201c565b82600760006101000a81548173ffffffffffffffffffffffffffffffffffffffff021916908373ffffffffffffffffffffffffffffffffffffffff160217905550600760009054906101000a900473ffffffffffffffffffffffffffffffffffffffff1673ffffffffffffffffffffffffffffffffffffffff166323b872dd3330856040518463ffffffff1660e01b8152600401620000f99392919062000487565b6020604051808303816000875af115801562000119573d6000803e3d6000fd5b505050506040513d601f19601f820116820180604052508101906200013f919062000501565b5082600860006101000a81548173ffffffffffffffffffffffffffffffffffffffff021916908373ffffffffffffffffffffffffffffffffffffffff16021790555042600160106101000a8154816fffffffffffffffffffffffffffffffff02191690836fffffffffffffffffffffffffffffffff16021790555080600160006101000a8154816fffffffffffffffffffffffffffffffff02191690836fffffffffffffffffffffffffffffffff16021790555060028262000202919062000591565b60048190555060058262000217919062000591565b60028190555060045460025483620002309190620005c9565b6200023c9190620005c9565b60038190555050505062000604565b600033905090565b60008060009054906101000a900473ffffffffffffffffffffffffffffffffffffffff169050816000806101000a81548173ffffffffffffffffffffffffffffffffffffffff021916908373ffffffffffffffffffffffffffffffffffffffff1602179055508173ffffffffffffffffffffffffffffffffffffffff168173ffffffffffffffffffffffffffffffffffffffff167f8be0079c531659141344cd1fd0a4f28419497f9722a3daafe3b4186f6b6457e060405160405180910390a35050565b600080fd5b600073ffffffffffffffffffffffffffffffffffffffff82169050919050565b600062000349826200031c565b9050919050565b6200035b816200033c565b81146200036757600080fd5b50565b6000815190506200037b8162000350565b92915050565b6000819050919050565b620003968162000381565b8114620003a257600080fd5b50565b600081519050620003b6816200038b565b92915050565b60006fffffffffffffffffffffffffffffffff82169050919050565b620003e381620003bc565b8114620003ef57600080fd5b50565b6000815190506200040381620003d8565b92915050565b60008060006060848603121562000425576200042462000317565b5b600062000435868287016200036a565b93505060206200044886828701620003a5565b92505060406200045b86828701620003f2565b9150509250925092565b62000470816200033c565b82525050565b620004818162000381565b82525050565b60006060820190506200049e600083018662000465565b620004ad602083018562000465565b620004bc604083018462000476565b949350505050565b60008115159050919050565b620004db81620004c4565b8114620004e757600080fd5b50565b600081519050620004fb81620004d0565b92915050565b6000602082840312156200051a576200051962000317565b5b60006200052a84828501620004ea565b91505092915050565b7f4e487b7100000000000000000000000000000000000000000000000000000000600052601260045260246000fd5b7f4e487b7100000000000000000000000000000000000000000000000000000000600052601160045260246000fd5b60006200059e8262000381565b9150620005ab8362000381565b925082620005be57620005bd62000533565b5b828204905092915050565b6000620005d68262000381565b9150620005e38362000381565b925082821015620005f957620005f862000562565b5b828203905092915050565b6117fe80620006146000396000f3fe608060405234801561001057600080fd5b50600436106100cf5760003560e01c8063b22dd2ca1161008c578063d11a93cd11610066578063d11a93cd146101a4578063db4bed0e146101c2578063f2fde38b146101e0578063fee2cb05146101fc576100cf565b8063b22dd2ca14610160578063b6b55f251461017e578063c916384a1461019a576100cf565b80632bc80f3a146100d45780633ccfd60b146100f257806355a373d6146100fc578063580081c41461011a578063715018a6146101385780638da5cb5b14610142575b600080fd5b6100dc61021a565b6040516100e99190610ed9565b60405180910390f35b6100fa61023c565b005b6101046105a8565b6040516101119190610f73565b60405180910390f35b6101226105ce565b60405161012f9190610faf565b60405180910390f35b6101406105f4565b005b61014a61067c565b6040516101579190610faf565b60405180910390f35b6101686106a5565b6040516101759190610fe3565b60405180910390f35b6101986004803603810190610193919061102f565b6106ab565b005b6101a26108d7565b005b6101ac610bfe565b6040516101b99190610fe3565b60405180910390f35b6101ca610c04565b6040516101d79190610fe3565b60405180910390f35b6101fa60048036038101906101f59190611088565b610c0a565b005b610204610d02565b6040516102119190610fe3565b60405180910390f35b600160009054906101000a90046fffffffffffffffffffffffffffffffff1681565b610244610d08565b15610284576040517f08c379a000000000000000000000000000000000000000000000000000000000815260040161027b90611112565b60405180910390fd5b6000600660003373ffffffffffffffffffffffffffffffffffffffff1673ffffffffffffffffffffffffffffffffffffffff1681526020019081526020016000205490506000811161030b576040517f08c379a00000000000000000000000000000000000000000000000000000000081526004016103029061117e565b60405180910390fd5b6000806000600160009054906101000a90046fffffffffffffffffffffffffffffffff16600461033b91906111cd565b600160109054906101000a90046fffffffffffffffffffffffffffffffff166103649190611217565b6fffffffffffffffffffffffffffffffff164211156103f457610388600254610d7c565b9250610395600354610d7c565b91506103a2600454610d7c565b905082600260008282546103b6919061125d565b9250508190555081600360008282546103cf919061125d565b9250508190555080600460008282546103e8919061125d565b925050819055506104da565b600160009054906101000a90046fffffffffffffffffffffffffffffffff16600361041f91906111cd565b600160109054906101000a90046fffffffffffffffffffffffffffffffff166104489190611217565b6fffffffffffffffffffffffffffffffff164211156104b25761046c600254610d7c565b9250610479600354610d7c565b9150826002600082825461048d919061125d565b9250508190555081600360008282546104a6919061125d565b925050819055506104d9565b6104bd600254610d7c565b925082600260008282546104d1919061125d565b925050819055505b5b60008183856104e99190611291565b6104f39190611291565b9050600760009054906101000a900473ffffffffffffffffffffffffffffffffffffffff1673ffffffffffffffffffffffffffffffffffffffff1663a9059cbb3383886105409190611291565b6040518363ffffffff1660e01b815260040161055d9291906112e7565b6020604051808303816000875af115801561057c573d6000803e3d6000fd5b505050506040513d601f19601f820116820180604052508101906105a09190611348565b505050505050565b600760009054906101000a900473ffffffffffffffffffffffffffffffffffffffff1681565b600860009054906101000a900473ffffffffffffffffffffffffffffffffffffffff1681565b6105fc610de2565b73ffffffffffffffffffffffffffffffffffffffff1661061a61067c565b73ffffffffffffffffffffffffffffffffffffffff1614610670576040517f08c379a0000000000000000000000000000000000000000000000000000000008152600401610667906113c1565b60405180910390fd5b61067a6000610dea565b565b60008060009054906101000a900473ffffffffffffffffffffffffffffffffffffffff16905090565b60025481565b6000600160009054906101000a90046fffffffffffffffffffffffffffffffff16600160109054906101000a90046fffffffffffffffffffffffffffffffff166106f59190611217565b6fffffffffffffffffffffffffffffffff16905080421061074b576040517f08c379a00000000000000000000000000000000000000000000000000000000081526004016107429061142d565b60405180910390fd5b6000821161078e576040517f08c379a000000000000000000000000000000000000000000000000000000000815260040161078590611499565b60405180910390fd5b600760009054906101000a900473ffffffffffffffffffffffffffffffffffffffff1673ffffffffffffffffffffffffffffffffffffffff166323b872dd3330856040518463ffffffff1660e01b81526004016107ed939291906114b9565b6020604051808303816000875af115801561080c573d6000803e3d6000fd5b505050506040513d601f19601f820116820180604052508101906108309190611348565b5081600660003373ffffffffffffffffffffffffffffffffffffffff1673ffffffffffffffffffffffffffffffffffffffff1681526020019081526020016000205461087c9190611291565b600660003373ffffffffffffffffffffffffffffffffffffffff1673ffffffffffffffffffffffffffffffffffffffff16815260200190815260200160002081905550816005546108cd9190611291565b6005819055505050565b6108df610de2565b73ffffffffffffffffffffffffffffffffffffffff166108fd61067c565b73ffffffffffffffffffffffffffffffffffffffff1614610953576040517f08c379a000000000000000000000000000000000000000000000000000000000815260040161094a906113c1565b60405180910390fd5b6000600160009054906101000a90046fffffffffffffffffffffffffffffffff16600160109054906101000a90046fffffffffffffffffffffffffffffffff1661099d9190611217565b6fffffffffffffffffffffffffffffffff1642119050806109f3576040517f08c379a00000000000000000000000000000000000000000000000000000000081526004016109ea90611562565b60405180910390fd5b6000600160009054906101000a90046fffffffffffffffffffffffffffffffff166004610a2091906111cd565b600160109054906101000a90046fffffffffffffffffffffffffffffffff16610a499190611217565b6fffffffffffffffffffffffffffffffff164211905060008060055414905060008280610a735750815b905080610ab5576040517f08c379a0000000000000000000000000000000000000000000000000000000008152600401610aac9061161a565b60405180910390fd5b600760009054906101000a900473ffffffffffffffffffffffffffffffffffffffff1673ffffffffffffffffffffffffffffffffffffffff1663a9059cbb610afb61067c565b600760009054906101000a900473ffffffffffffffffffffffffffffffffffffffff1673ffffffffffffffffffffffffffffffffffffffff166370a08231306040518263ffffffff1660e01b8152600401610b569190610faf565b602060405180830381865afa158015610b73573d6000803e3d6000fd5b505050506040513d601f19601f82011682018060405250810190610b97919061164f565b6040518363ffffffff1660e01b8152600401610bb49291906112e7565b6020604051808303816000875af1158015610bd3573d6000803e3d6000fd5b505050506040513d601f19601f82011682018060405250810190610bf79190611348565b5050505050565b60095481565b60045481565b610c12610de2565b73ffffffffffffffffffffffffffffffffffffffff16610c3061067c565b73ffffffffffffffffffffffffffffffffffffffff1614610c86576040517f08c379a0000000000000000000000000000000000000000000000000000000008152600401610c7d906113c1565b60405180910390fd5b600073ffffffffffffffffffffffffffffffffffffffff168173ffffffffffffffffffffffffffffffffffffffff161415610cf6576040517f08c379a0000000000000000000000000000000000000000000000000000000008152600401610ced906116ee565b60405180910390fd5b610cff81610dea565b50565b60035481565b600080600160009054906101000a90046fffffffffffffffffffffffffffffffff166002610d3691906111cd565b600160109054906101000a90046fffffffffffffffffffffffffffffffff16610d5f9190611217565b6fffffffffffffffffffffffffffffffff16905080421091505090565b600080600660003373ffffffffffffffffffffffffffffffffffffffff1673ffffffffffffffffffffffffffffffffffffffff1681526020019081526020016000205490506005548382610dd0919061170e565b610dda9190611797565b915050919050565b600033905090565b60008060009054906101000a900473ffffffffffffffffffffffffffffffffffffffff169050816000806101000a81548173ffffffffffffffffffffffffffffffffffffffff021916908373ffffffffffffffffffffffffffffffffffffffff1602179055508173ffffffffffffffffffffffffffffffffffffffff168173ffffffffffffffffffffffffffffffffffffffff167f8be0079c531659141344cd1fd0a4f28419497f9722a3daafe3b4186f6b6457e060405160405180910390a35050565b60006fffffffffffffffffffffffffffffffff82169050919050565b610ed381610eae565b82525050565b6000602082019050610eee6000830184610eca565b92915050565b600073ffffffffffffffffffffffffffffffffffffffff82169050919050565b6000819050919050565b6000610f39610f34610f2f84610ef4565b610f14565b610ef4565b9050919050565b6000610f4b82610f1e565b9050919050565b6000610f5d82610f40565b9050919050565b610f6d81610f52565b82525050565b6000602082019050610f886000830184610f64565b92915050565b6000610f9982610ef4565b9050919050565b610fa981610f8e565b82525050565b6000602082019050610fc46000830184610fa0565b92915050565b6000819050919050565b610fdd81610fca565b82525050565b6000602082019050610ff86000830184610fd4565b92915050565b600080fd5b61100c81610fca565b811461101757600080fd5b50565b60008135905061102981611003565b92915050565b60006020828403121561104557611044610ffe565b5b60006110538482850161101a565b91505092915050565b61106581610f8e565b811461107057600080fd5b50565b6000813590506110828161105c565b92915050565b60006020828403121561109e5761109d610ffe565b5b60006110ac84828501611073565b91505092915050565b600082825260208201905092915050565b7f546f6b656e7320617265206c6f636b6564000000000000000000000000000000600082015250565b60006110fc6011836110b5565b9150611107826110c6565b602082019050919050565b6000602082019050818103600083015261112b816110ef565b9050919050565b7f596f7572207374616b696e67206163636f756e7420697320656d707479000000600082015250565b6000611168601d836110b5565b915061117382611132565b602082019050919050565b600060208201905081810360008301526111978161115b565b9050919050565b7f4e487b7100000000000000000000000000000000000000000000000000000000600052601160045260246000fd5b60006111d882610eae565b91506111e383610eae565b9250816fffffffffffffffffffffffffffffffff048311821515161561120c5761120b61119e565b5b828202905092915050565b600061122282610eae565b915061122d83610eae565b9250826fffffffffffffffffffffffffffffffff038211156112525761125161119e565b5b828201905092915050565b600061126882610fca565b915061127383610fca565b9250828210156112865761128561119e565b5b828203905092915050565b600061129c82610fca565b91506112a783610fca565b9250827fffffffffffffffffffffffffffffffffffffffffffffffffffffffffffffffff038211156112dc576112db61119e565b5b828201905092915050565b60006040820190506112fc6000830185610fa0565b6113096020830184610fd4565b9392505050565b60008115159050919050565b61132581611310565b811461133057600080fd5b50565b6000815190506113428161131c565b92915050565b60006020828403121561135e5761135d610ffe565b5b600061136c84828501611333565b91505092915050565b7f4f776e61626c653a2063616c6c6572206973206e6f7420746865206f776e6572600082015250565b60006113ab6020836110b5565b91506113b682611375565b602082019050919050565b600060208201905081810360008301526113da8161139e565b9050919050565b7f4465706f7369742074696d6520706572696f6420656e64656400000000000000600082015250565b60006114176019836110b5565b9150611422826113e1565b602082019050919050565b600060208201905081810360008301526114468161140a565b9050919050565b7f4465706f7369742073686f756c642062652067726561746572207468616e2030600082015250565b60006114836020836110b5565b915061148e8261144d565b602082019050919050565b600060208201905081810360008301526114b281611476565b9050919050565b60006060820190506114ce6000830186610fa0565b6114db6020830185610fa0565b6114e86040830184610fd4565b949350505050565b7f4f776e65722063616e6e6f74207769746864726177206265666f72652074686560008201527f20656e64206f66206465706f73697420706572696f6400000000000000000000602082015250565b600061154c6036836110b5565b9150611557826114f0565b604082019050919050565b6000602082019050818103600083015261157b8161153f565b9050919050565b7f42616e6b206f776e65722063616e6e6f74207769746864726177206265666f7260008201527f652034542068617320706173736564206f72206265666f726520616c6c20757360208201527f65727320686176652077697468647261776e0000000000000000000000000000604082015250565b60006116046052836110b5565b915061160f82611582565b606082019050919050565b60006020820190508181036000830152611633816115f7565b9050919050565b60008151905061164981611003565b92915050565b60006020828403121561166557611664610ffe565b5b60006116738482850161163a565b91505092915050565b7f4f776e61626c653a206e6577206f776e657220697320746865207a65726f206160008201527f6464726573730000000000000000000000000000000000000000000000000000602082015250565b60006116d86026836110b5565b91506116e38261167c565b604082019050919050565b60006020820190508181036000830152611707816116cb565b9050919050565b600061171982610fca565b915061172483610fca565b9250817fffffffffffffffffffffffffffffffffffffffffffffffffffffffffffffffff048311821515161561175d5761175c61119e565b5b828202905092915050565b7f4e487b7100000000000000000000000000000000000000000000000000000000600052601260045260246000fd5b60006117a282610fca565b91506117ad83610fca565b9250826117bd576117bc611768565b5b82820490509291505056fea26469706673582212203b09fd792263e9fde5c84e531734b5b1016cf49602b78755f3e1f6b9093a41ed64736f6c634300080a0033",
  "immutableReferences": {},
  "source": "// SPDX-License-Identifier: MIT\n\npragma solidity 0.8.10;\n\nimport \"@openzeppelin/contracts/token/ERC20/ERC20.sol\";\nimport \"@openzeppelin/contracts/access/Ownable.sol\";\n\n///Starting from solidiy 0.8.0 there is no need to use SafeMath library as all arithmetic is checked by default now\n// import \"@openzeppelin/contracts/utils/math/SafeMath.sol\";\n\n/**\n * @title ERC20Bank\n * @notice This smart contract enables anyone to deposit an amount X of ERC-20 tokens to their savings (staking) account.\n * The bank smart contract also contains an additional token reward pool of R ERC-20 tokens, deposited to the contract by the contract owner (bank owner)\n * at contract deployment.\n */\ncontract ERC20Bank is Ownable {\n    ///uint128 is a VERY BIG number for the timestamp that should cover our needs for sure, even uint64 would be enough, but if we use\n    ///uint64 then those 2 variables will take only 128 bits of a 256 bit slot and because all other variables are uint256 they will not fit into the half-empty slot anyway\n    uint128 public T;\n    uint128 private T0;\n\n    uint256 public R1;\n    uint256 public R2;\n    uint256 public R3;\n\n    uint256 private stakePoolSize;\n\n    mapping(address => uint256) private stakes;\n\n    ERC20 public tokenContract;\n    address public tAddress;\n    uint256 public bankAllowance;\n\n    /**\n     * @param depositTokenContract The addrss of the ERC-20 contract tokens of which users will stake into the bank\n     * @param rewardPoolSize The amount of ERC-20 tokens that the bank owner transfers to the reward pool at bank contract deployment\n     * @param t Time constant which is going to be used for calculations like reward amount, tokens lock period, etc.\n     *\n     * @notice IMPORTANT: The smart contract assumes that creator has called 'approve' method of 'depositTokenContract' ERC-20 contract with amount\n     * greater than or equal to the 'rewardPoolSize' to be able to transfer reward pool to the bank contract.\n     */\n    constructor(\n        address depositTokenContract,\n        uint256 rewardPoolSize,\n        uint128 t\n    ) {\n        tokenContract = ERC20(depositTokenContract);\n        tokenContract.transferFrom(msg.sender, address(this), rewardPoolSize);\n        tAddress = depositTokenContract;\n\n        T0 = uint128(block.timestamp);\n        T = t;\n        R3 = rewardPoolSize / 2; //50% of reward pool\n        R1 = rewardPoolSize / 5; //20% of reward pool\n        R2 = rewardPoolSize - R1 - R3; // Reward pool - R1 - R3 equals R2\n    }\n\n    function withdrawRemainingRewardPool() public onlyOwner {\n        /// Overflow here is handled by solidityy as starting from solidity 0.8.0 all operations are checked by default\n        /// We should handle overflow here to avoid the case where contract owner can potentially manipulate the contract in the following way:\n        /// If contract owner passes T big enough that it will overflow when we calculate T0 + 4*T they will be able to withdraw reward pool before 4T has passed or before\n        /// every user has withdrawn their reward\n        bool hasDepositPeriodPassed = block.timestamp > T0 + T;\n\n        require(\n            hasDepositPeriodPassed,\n            \"Owner cannot withdraw before the end of deposit period\"\n        );\n\n        bool has4Tpassed = block.timestamp > T0 + 4 * T;\n        bool haveAllUsersWithdrawn = stakePoolSize == 0;\n        bool canOwnerWithdraw = has4Tpassed || haveAllUsersWithdrawn;\n\n        require(\n            canOwnerWithdraw,\n            \"Bank owner cannot withdraw before 4T has passed or before all users have withdrawn\"\n        );\n\n        tokenContract.transfer(owner(), tokenContract.balanceOf(address(this)));\n    }\n\n    function deposit(uint256 amount) public {\n        uint256 depositPeriodClosingTime = T0 + T;\n        require(\n            block.timestamp < depositPeriodClosingTime,\n            \"Deposit time period ended\"\n        );\n        require(amount > 0, \"Deposit should be greater than 0\");\n\n        tokenContract.transferFrom(msg.sender, address(this), amount);\n\n        stakes[msg.sender] = stakes[msg.sender] + amount;\n        stakePoolSize = stakePoolSize + amount;\n    }\n\n    function withdraw() public {\n        require(!_areTokensLocked(), \"Tokens are locked\");\n\n        uint256 stake = stakes[msg.sender];\n        require(stake > 0, \"Your staking account is empty\");\n\n        uint256 stakingRewardFromR1;\n        uint256 stakingRewardFromR2;\n        uint256 stakingRewardFromR3;\n\n        if (block.timestamp > T0 + 4 * T) {\n            stakingRewardFromR1 = _calculateStakingRewardFromRewardPool(R1);\n            stakingRewardFromR2 = _calculateStakingRewardFromRewardPool(R2);\n            stakingRewardFromR3 = _calculateStakingRewardFromRewardPool(R3);\n\n            R1 -= stakingRewardFromR1;\n            R2 -= stakingRewardFromR2;\n            R3 -= stakingRewardFromR3;\n        } else if (block.timestamp > T0 + 3 * T) {\n            stakingRewardFromR1 = _calculateStakingRewardFromRewardPool(R1);\n            stakingRewardFromR2 = _calculateStakingRewardFromRewardPool(R2);\n\n            R1 -= stakingRewardFromR1;\n            R2 -= stakingRewardFromR2;\n        } else {\n            stakingRewardFromR1 = _calculateStakingRewardFromRewardPool(R1);\n\n            R1 -= stakingRewardFromR1;\n        }\n\n        uint256 stakingReward = stakingRewardFromR1 +\n            stakingRewardFromR2 +\n            stakingRewardFromR3;\n\n        tokenContract.transfer(msg.sender, stake + stakingReward);\n    }\n\n    function _areTokensLocked() private view returns (bool) {\n        ///According to the requirements \"From moment t0+T to t0+2T, users cannot withdraw their tokens\" and \"If the user tries to remove tokens before T time has elapsed\n        ///since they have deposited, the transaction should fail\". That means that user should not be able to\n        ///withdraw their funds up until t0 + 2*T has passed\n        uint256 lockPeriodEndTime = T0 + 2 * T;\n        return block.timestamp < lockPeriodEndTime;\n    }\n\n    function _calculateStakingRewardFromRewardPool(uint256 rewardPool)\n        private\n        view\n        returns (uint256)\n    {\n        uint256 stake = stakes[msg.sender];\n        return (stake * rewardPool) / stakePoolSize;\n    }\n}\n",
  "sourcePath": "/Users/rostykstakhiv/Blockchain/ETH/tracelabs_task/contracts/ERC20Bank.sol",
  "compiler": {
    "name": "solc",
    "version": "0.8.10+commit.fc410830.Emscripten.clang"
  },
  "schemaVersion": "3.4.2",
  "updatedAt": "2021-11-20T20:12:58.242Z",
  "devdoc": {
    "kind": "dev",
    "methods": {
      "constructor": {
        "params": {
          "depositTokenContract": "The addrss of the ERC-20 contract tokens of which users will stake into the bank",
          "rewardPoolSize": "The amount of ERC-20 tokens that the bank owner transfers to the reward pool at bank contract deployment",
          "t": "Time constant which is going to be used for calculations like reward amount, tokens lock period, etc."
        }
      },
      "owner()": {
        "details": "Returns the address of the current owner."
      },
      "renounceOwnership()": {
        "details": "Leaves the contract without owner. It will not be possible to call `onlyOwner` functions anymore. Can only be called by the current owner. NOTE: Renouncing ownership will leave the contract without an owner, thereby removing any functionality that is only available to the owner."
      },
      "transferOwnership(address)": {
        "details": "Transfers ownership of the contract to a new account (`newOwner`). Can only be called by the current owner."
      }
    },
    "title": "ERC20Bank",
    "version": 1
  },
  "userdoc": {
    "kind": "user",
    "methods": {
      "T()": {
        "notice": "uint128 is a VERY BIG number for the timestamp that should cover our needs for sure, even uint64 would be enough, but if we use uint64 then those 2 variables will take only 128 bits of a 256 bit slot and because all other variables are uint256 they will not fit into the half-empty slot anyway"
      },
      "constructor": {
        "notice": "IMPORTANT: The smart contract assumes that creator has called 'approve' method of 'depositTokenContract' ERC-20 contract with amount greater than or equal to the 'rewardPoolSize' to be able to transfer reward pool to the bank contract."
      }
    },
    "notice": "This smart contract enables anyone to deposit an amount X of ERC-20 tokens to their savings (staking) account. The bank smart contract also contains an additional token reward pool of R ERC-20 tokens, deposited to the contract by the contract owner (bank owner) at contract deployment.",
    "version": 1
  }
}